:4000000000800020110000001D0700001D07000008B5044B1A6803F53F5302331A6000F09DFB00BFFA46004010B5054C237833B9044B13B10448AFF300800123237010BD97
:400040007081FF1F0000000024370000084B10B51BB108490848AFF300800848036803B910BD074B002BFBD0BDE81040184700BF000000007481FF1F24370000C880FF1FFC
:400080000000000008B500F07BF8034B188000F0A1F900F099FD08BD9C81FF1F08B500F013F940F6C41000F049F900F0B5FF00F0E1FD034800F060FD00F0ACF908BD00BF12
:4000C0008500000008B500F04FFD00F027F900F0CFF800F0A5F908BD08B562B60022074B1A7000F06FFC00F08BF900F007F900F0E5F8034B188800F02FF908BD9E81FF1F01
:40010000CC80FF1F08B5FFF7E7FF00F08FF9FEE708B5074B1B782BB90122054B1A70FFF7BDFF08BD0022024B1A70FFF7CBFF08BD9E81FF1F490841EAC010014B18807047C3
:400140009C81FF1F08B500F0E5FE00F0E1FB08BD10B50446002000F06FFC204600F094FBFF2000F091FBFF2000F066FC00F098FB00F096FB044600F099FB204610BD00BFE4
:4001800010B50120FFF7E4FF04460220FFF7E0FF01462046FFF7CEFF10BD00BF38B505460C46002000F048FC284600F06DFB204600F06AFBFF2000F03FFC00F077FB38BD43
:4001C00038B504460020FFF7C3FF05462CB900F0F70529468020FFF7E1FF102C05D145F00801C9B28020FFF7D9FF38BD38B504460020FFF7ADFF0546012C06D140F0010543
:40020000EDB229468020FFF7C9FF24B905F0FE018020FFF7C3FF38BD38B504460020FFF797FF0546402C06D140F04005EDB229468020FFF7B3FF24B905F0BF018020FFF7D0
:40024000ADFF38BD38B504460020FFF781FF0546802C06D140F04005EDB229468020FFF79DFF24B905F07F018020FFF797FF38BD08B50020FFF7D0FF0020FFF7E3FF00F090
:4002800057FE00F0E1FA08BD08B50020FFF760FF40F00201C9B28020FFF780FF08BD00BF08B50020FFF78CFF0120FFF79FFF8020FFF7C8FFFFF7E8FF08BD00BF08B5FFF75C
:4002C00041FFFFF7EDFF08BD08B500F023FEFFF739FF8020FFF7B6FF4020FFF79DFFFFF7D3FF08BD08B5002000F04CFE08BD00BF08B5002000F046FE08BD00BF08B5042040
:4003000000F0D6FD002000F0BBFD042000F052FE00F070FEFFF7ECFF08BD00BF08B500F093FD002000F0ACFD00F002FDFFF7E0FF08BD00BF0002C0F34730704710B50446DB
:4003400000F066FD2046FFF7F5FF00F099FD00F0CFFDFFF7C7FF10BD024B18800022024B1A607047B081FF1FA081FF1F08B5094B1B8800FB03F000F0C1FF00224FF07C537A
:4003800001F022F801F032FA034901F07FFA01F0CDFB08BDB081FF1F00007A4408B5FFF7E5FF00F079FB074B186000F0A7FF0022054B01F033F9054BC3E90001044800F0B1
:4003C0001BFB08BDA081FF1F00005940A881FF1F2837000008B5FFF7E1FF08BD08B5044800F00AFB00F060FCFFF792FE08BD00BF3037000008B5FF2000F04AFC08BD00BFFB
:4004000008B5FFF7F7FF024800F070FC08BD00BFDD03000008B5FF2000F01AFB08BD00BF08B5002000F014FB08BD00BF08B54FF4E250FFF7CFFF41F65740FFF7CBFF41F689
:400440007940FFF7C7FF41F6AE60FFF7C3FF41F60B70FFF7BFFF41F6C670FFF7BBFF42F24F00FFF7B7FF08BDFEE700BFF0B40022174611E050F82760F3B226F0FF0608E064
:4004800001EB420511F812406D78A5550132013BDBB2002BF4D10137192FEBD9F0BC70470F4B1B78DBB203F007010E4A11701B090132137004220C4B1A7080220F331A709F
:4004C00020230A4A1370402108321170012163321170053213704422054B1A70704700BFCF0100496E5800400D510040205A00407658004008B50A46002101F06EFB08BD4C
:4005000038B50B222C4B1A8018232C4A13703321023211800232137040F25721023211800232137045F6BF5102321180023213700222234B1A7008224FF040231A70032109
:4005400003F5007319701F4B1B78DBB21E490B701E4B1A8041F25122023B1A80002419250CE01B4B1B7803F0010343EA440404F003044FF4F07000F05FFD013D0DB1032CD3
:40058000EFD115B90320FFF76FFF124B4FF480721A8007221A7000220F490A704820023108701A700222033B1A700C4A137843F00F03137038BD00BF80400040824000406B
:4005C0000043004008010049A146004022420040254200400440004006400040A243004008B501F0EFFA08BD38B572B6384A137843F00403137000240CE0364D6300191922
:400600004A0011462A44084691882858FFF772FF0134E4B2072CF0D900240BE02D49A3001819420088180622416B006BFFF7D8FF0134E4B2002CF1D027494FF09040FFF722
:4006400015FF264A137843F0020313701032137843F002031370224C237843F040032370A2F58632513A137843F01003137008221C491D48FFF7B4FF0A221C491C48FFF760
:40068000AFFF0A221B491C48FFF7AAFF0A221B491B48FFF7A5FF08221A491B48FFF7A0FF1A4A137843F008031370194D61232B70FFF726FF81232B700122164B1A70FFF754
:4006C000EFFE0E2221461448FFF78AFF38BD00BFE8460040503700006800004803500140A0430040E806004802510040F0060048C0510040FC060048F05100400807004811
:40070000105100401407004832510040224300400048004004000840B043004008B501F025FA03680C2B00D1FEE7FEE708B5094B1A681044084BC31AB3F5007F02DC054BD0
:40074000186005E001F012FA0C2303604FF0FF32104608BDD080FF1FB881FF1F08B5104E104D16E029686B68AC68002204E051F8040B43F8040B0432A242F8D1E86800225A
:4007800003E0002143F8041B04328242F9D11035013E002EE6D101F0EFF9FFF7B3FCFEE7010000002439000008B5104A104B1A60104A136843F40073136000230AE0032BD4
:4007C00003D80D4A52F8231000E00C490C4A42F8231001332F2BF2D90A4B1A780A4B1A70074A0A4B1A60FFF7FFFE08BD0004FA050CED00E014ED00E0000000001D0700007A
:400800000080FF1FBC760040C080FF1F08ED00E001BE704708B500F017FC0A4A137843F0200313700132137843F010031370043A137843F01003137000F00AFC00F076F81A
:4008400008BD00BF9A65004008B500F0FDFB074A137803F0EF031370043A137803F0EF03137000F0F5FB00F06FF808BD9B650040014B1878704700BF6B650040014B187821
:40088000704700BF67650040034B1B7813F0040FFAD0024B187070476B65004047640040014B1878704700BF5764004008B501E00A4B1B780A4B1B7813F0200FF8D100F0C8
:4008C000C3FB084B1A7842F001021A701A7802F0FE021A7000F0BCFB08BD00BF57640040676500409764004008B50F22064B1A70FFF7DCFFFFF7BCFFFFF7C0FF0023034AAB
:400900001370043A137008BD8A6500408B65004008B5054B1B7823B9FFF7E6FF0122024B1A70FFF777FF08BD8C81FF1F054A137843F0010313701032137843F00103137087
:40094000704700BFA2430040054A137803F0FE0313701032137803F0FE031370704700BFA24300407222084B1A702022FE3B1A700622633B1A70472210331A70002203F596
:40098000A9731A70704700BF8565004010B500F05BFB04460A4A137843F020031370FE3A137843F010031370FF32137843F01003137000F033F8204600F04AFB10BD00BF91
:4009C0009565004008B5054B1B7823B9FFF7CAFF0122024B1A70FFF7D9FF08BD8D81FF1F034B1B7813F0040FFAD1024B18707047666500404564004038B5074B1B782BB9D1
:400A000038BDFFF7EDFF0134A4B201E005460024285D0028F5D138BD8D81FF1F054A137843F0020313701032137843F002031370704700BFA2430040044A137803F0FB03EE
:400A4000800000F00400184310707047F0510040044A137803F0FD03400000F002001843107070470051004030B40B46C517A0FB010103FB0511002871F1000307DA40421C
:400A800061EB4101000E40EA0120404202E0000E40EA012030BC7047F0B58DB00746224C06AD26460FCE0FC596E8030085E803006D4618340FCC0FC594E8030085E80300F4
:400AC0001A4B9F4217D9BD00002005240AE00CAB03EB840353F8183C29461844FFF7C4FF013CE4B2002CF2D1114B0344D9171B0A43EA016016E0BD00002005240AE00CABDC
:400B000003EB840353F8303C29461844FFF7ACFF013CE4B2002CF2D1064B0344D9179B0A43EA81500DB0F0BD8C37000040420F00D9A59BFFA9F684FE024B1B68C3F884002A
:400B4000704700BF08ED00E04001C0B2014B1870704700BF11E400E04FF40032014B1A60704700BF00E100E04FF40032014B1A60704700BF80E100E010B50446FFF7F4FFFC
:400B80002046FFF7D9FF0720FFF7DEFFFFF7E4FF10BD00BF084A137843F0010313701032137843F00103137002F64D32137843F001031370704700BFA3430040014B187058
:400BC000704700BF034F0040014B1878704700BF034F004010B50446094B1B7813F0010F02D00020FFF714FE054B1A7842F001021A70044A14801A7802F0FE021A7010BDA8
:400C0000A3430040064F0040014B1880704700BF044F004008B5154A137803F0010313700232137803F0FC031370013A137843F0010313700E4B1A7802F0CF021A701A786D
:400C400042F030021A701A7802F0F0021A701A7842F00F021A704FF47A70FFF7D5FF0020FFF7B8FF0820FFF7A9FF08BD004F00400B4F004008B5054B1B7823B9FFF7CAFF74
:400C80000122024B1A70FFF785FF08BD8F81FF1F044A137803F0F703C00000F0080018431070704700510040024B187800F00100704700BF80450040014B1B6818657047E0
:400CC00008ED00E04001C0B2014B1870704700BF04E400E01022014B1A60704700E100E01022014B1A60704780E100E010B50446FFF7F6FF2046FFF7DFFF0720FFF7E2FFC8
:400D0000FFF7E8FF10BD00BF084A137843F0040313701032137843F00403137002F5A5521E32137843F0800313707047A9430040054A137803F0FB0313701032137803F033
:400D4000FB031370704700BFA9430040044A137803F0FC0300F0030018431070704700BF0958004010B487B00446194B03AA1868596803C2197A11706A4653F80C0F596859
:400D800003C21B7A1370082C1ED812490B7803F08003DBB20B70087806AB1C4414F80C3C14F8182C920002F00C02134303430B70094A137803F0F3031370117814F8183CBF
:400DC0000B4343F00C03137007B010BC704700BFBC3700000A5800400958004008B50C22084B1A70084A137843F0200313708022064B1A700120FFF7B5FF0120FFF7A6FF2F
:400E000008BD00BF08580040095800400A58004008B5054B1B7823B9FFF7E0FF0122024B1A70FFF771FF08BD9081FF1F054A137843F0040313701032137843F00403137085
:400E4000704700BFA8430040054A137803F0FB0313701032137803F0FB031370704700BFA8430040054B1A7802F0FD021A701A7800F0020010431870704700BF28580040AF
:400E8000014B1870704700BF825B0040064B1B78C3F3810303F19243063393F82831DBB2024A1370704700BF285800400A46004008B5064B1A7802F0F3021A701A7800F012
:400EC0000C0010431870FFF7E1FF08BD2858004010B50024054B1C7001331C700420FFF7E7FF2046FFF7BEFF10BD00BF2858004008B5074B1B7823B9FFF7EAFF0122044BF7
:400F00001A70FFF793FF0020FFF7BAFF08BD00BF9181FF1F054A137843F0040313701032137843F004031370704700BFA2430040054A137803F0FB0313701032137803F052
:400F4000FB031370704700BFA2430040054A137843F0020313701032137843F002031370704700BFA8430040054B1A7802F0FD021A701A7800F0020010431870704700BF65
:400F800024580040014B1870704700BF815B0040064B1B78C3F3810303F19243063393F83031DBB2024A1370704700BF245800400946004008B5064B1A7802F0F3021A70D5
:400FC0001A7800F00C0010431870FFF7E1FF08BD2458004010B50024054B1C7001331C700420FFF7E7FF2046FFF7BEFF10BD00BF2458004008B5074B1B7823B9FFF7EAFFEE
:401000000122044B1A70FFF7A1FF0020FFF7BAFF08BD00BF9281FF1F054A137843F0080313701032137843F008031370704700BFA2430040000000000230800803D000BF8A
:4010400001380046FCD17047EFF3108072B6704780F31088704700BF81F0004102E000BF83F0004330B54FEA41044FEA430594EA050F08BF90EA020F1FBF54EA000C55EA63
:40108000020C7FEA645C7FEA655C00F0E2804FEA5454D4EB5555B8BF6D420CDD2C4480EA020281EA030382EA000083EA010180EA020281EA0303362D88BF30BD11F0004F34
:4010C0004FEA01314FF4801C4CEA113102D0404261EB410113F0004F4FEA03334CEA133302D0524263EB430394EA050F00F0A780A4F10104D5F1200E0DDB02FA0EFC22FAD4
:4011000005F2801841F1000103FA0EF2801843FA05F359410EE0A5F120050EF1200E012A03FA0EFC28BF4CF0020C43FA05F3C01851EBE37101F0004507D54FF0000EDCF187
:40114000000C7EEB00006EEB0101B1F5801F1BD3B1F5001F0CD349085FEA30004FEA3C0C04F101044FEA445212F5800F80F09A80BCF1004F08BF5FEA500C50F1000041EBBF
:40118000045141EA050130BD5FEA4C0C404141EB010111F4801FA4F10104E9D191F0000F04BF01460020B1FA81F308BF2033A3F10B03B3F120020CDA0C3208DD02F1140CFD
:4011C000C2F10C0201FA0CF021FA02F10CE002F11402D8BFC2F1200C01FA02F120FA0CFCDCBF41EA0C019040E41AA2BF01EB0451294330BD6FEA04041F3C1CDA0C340EDC36
:4012000004F11404C4F1200220FA04F001FA02F340EA030021FA04F345EA030130BDC4F10C04C4F1200220FA02F001FA04F340EA0300294630BD21FA04F0294630BD94F05B
:40124000000F83F4801306BF81F480110134013D4EE77FEA645C18BF7FEA655C29D094EA050F08BF90EA020F05D054EA000C04BF1946104630BD91EA030F1EBF00210020AC
:4012800030BD5FEA545C05D14000494128BF41F0004130BD14F580043CBF01F5801130BD01F0004545F0FE4141F470014FF0000030BD7FEA645C1ABF194610467FEA655C09
:4012C0001CBF0B46024650EA013406BF52EA033591EA030F41F4002130BD00BF90F0000F04BF0021704730B54FF4806404F132044FF000054FF0000150E700BF90F0000FD9
:4013000004BF0021704730B54FF4806404F1320410F0004548BF40424FF000013EE700BF42004FEAE2014FEA31014FEA02701FBF12F07F4393F07F4F81F06051704792F027
:40134000000F14BF93F07F4F704730B54FF4607401F0004521F0004120E700BF50EA010208BF704730B54FF000050AE050EA010208BF704730B511F0004502D5404261EBE0
:4013800041014FF4806404F132045FEA915C3FF4DCAE4FF003025FEADC0C18BF03325FEADC0C18BF033202EBDC02C2F1200300FA03FC20FA02F001FA03FE40EA0E0021FAF3
:4013C00002F11444C1E600BF70B54FF0FF0C4CF4E06C1CEA11541DBF1CEA135594EA0C0F95EA0C0F00F0DEF82C4481EA030621EA4C5123EA4C5350EA013518BF52EA0335A0
:4014000041F4801143F4801338D0A0FB02CE4FF00005E1FB02E506F00042E0FB03E54FF00006E1FB03569CF0000F18BF4EF0010EA4F1FF04B6F5007F64F5407404D25FEA80
:401440004E0E6D4146EB060642EAC62141EA55514FEAC52040EA5E504FEACE2EB4F1FD0C88BFBCF5E06F1ED8BEF1004F08BF5FEA500E50F1000041EB045170BD06F0004694
:4014800046EA010140EA020081EA0301B4EB5C04C2BFD4EB0C0541EA045170BD41F480114FF0000E013C00F3AB8014F1360FDEBF002001F0004170BDC4F10004203C35DA6A
:4014C0000C341BDC04F11404C4F1200500FA05F320FA04F001FA05F240EA020001F0004221F0004110EBD37021FA04F642EB06015EEA430E08BF20EAD37070BDC4F10C0405
:40150000C4F1200500FA04F320FA05F001FA04F240EA020001F0004110EBD37041F100015EEA430E08BF20EAD37070BDC4F1200500FA05F24EEA020E20FA04F301FA05F221
:4015400043EA020321FA04F001F0004121FA04F220EA020000EBD3705EEA430E08BF20EAD37070BD94F0000F0FD101F00046400041EB010111F4801F08BF013CF7D041EA21
:40158000060195F0000F18BF704703F00046520043EB030313F4801F08BF013DF7D043EA0603704794EA0C0F0CEA135518BF95EA0C0F0CD050EA410618BF52EA4306D1D121
:4015C00081EA030101F000414FF0000070BD50EA410606BF1046194652EA430619D094EA0C0F02D150EA013613D195EA0C0F05D152EA03361CBF104619460AD181EA0301F5
:4016000001F0004141F0FE4141F470014FF0000070BD41F0FE4141F4780170BD70B54FF0FF0C4CF4E06C1CEA11541DBF1CEA135594EA0C0F95EA0C0F00F0A7F8A4EB0504A1
:4016400081EA030E52EA03354FEA013100F088804FEA03334FF0805545EA131343EA12634FEA022245EA111545EA10654FEA00260EF000419D4208BF964244F1FD0404F5FC
:40168000407402D25B084FEA3202B61A65EB03055B084FEA32024FF480104FF4002CB6EB020E75EB030E22BFB61A754640EA0C005B084FEA3202B6EB020E75EB030E22BF01
:4016C000B61A754640EA5C005B084FEA3202B6EB020E75EB030E22BFB61A754640EA9C005B084FEA3202B6EB020E75EB030E22BFB61A754640EADC0055EA060E18D04FEADD
:40170000051545EA16754FEA06164FEAC30343EA52734FEAC2025FEA1C1CC0D111F4801F0BD141EA00014FF000004FF0004CB6E711F4801F04BF01430020B4F1FD0C88BFAD
:40174000BCF5E06F3FF6AFAEB5EB030C04BFB6EB020C5FEA500C50F1000041EB045170BD0EF0004E4EEA113114EB5C04C2BFD4EB0C0541EA045170BD41F480114FF0000EEC
:40178000013C90E645EA060E8DE60CEA135594EA0C0F08BF95EA0C0F3FF43BAF94EA0C0F0AD150EA01347FF434AF95EA0C0F7FF425AF104619462CE795EA0C0F06D152EABC
:4017C00003353FF4FDAE1046194622E750EA410618BF52EA43067FF4C5AE50EA41047FF40DAF52EA43057FF4EBAE12E74FEA4102B2F1E04324BFB3F5001CDCF1FE5C0DD925
:4018000001F0004C4FEAC0024CEA5070B2F1004F40EB830008BF20F00100704711F0804F21D113F13872BCBF01F00040704741F480114FEA5252C2F11802C2F1200C10FA1F
:401840000CF320FA02F018BF40F001004FEAC1234FEAD32303FA0CFC40EA0C0023FA02F34FEA4303CCE77FEA625307D150EA01331EBF4FF0FE4040F44000704701F0004070
:4018800040F0FE4040F40000704700BF4FF0FF0C1CEAD0521EBF1CEAD15392EA0C0F93EA0C0F6FD01A4480EA010C400218BF5FEA41211ED04FF0006343EA501043EA5111E4
:4018C000A0FB01310CF00040B1F5000F3EBF490041EAD3715B0040EA010062F17F02FD2A1DD8B3F1004F40EBC25008BF20F00100704790F0000F0CF0004C08BF49024CEA21
:40190000502040EA51207F3AC2BFD2F1FF0340EAC250704740F400004FF00003013A5DDC12F1190FDCBF00F000407047C2F10002410021FA02F1C2F1200200FA02FC5FEAF9
:40194000310040F1000053EA4C0308BF20EADC70704792F0000F00F0004C02BF400010F4000F013AF9D040EA0C0093F0000F01F0004C02BF490011F4000F013BF9D041EA6D
:401980000C018FE70CEAD15392EA0C0F18BF93EA0C0F0AD030F0004C18BF31F0004CD8D180EA010000F00040704790F0000F17BF90F0004F084691F0000F91F0004F14D039
:4019C00092EA0C0F01D142020FD193EA0C0F03D14B0218BF084608D180EA010000F0004040F0FE4040F40000704740F0FE4040F4400070474FF0FF0C1CEAD0521EBF1CEAC1
:401A0000D15392EA0C0F93EA0C0F69D0A2EB030280EA010C49024FEA402037D04FF0805343EA111143EA10130CF000408B4238BF5B0042F17D024FF4000C8B4224BF5B1AF4
:401A400040EA0C00B3EB510F24BFA3EB510340EA5C00B3EB910F24BFA3EB910340EA9C00B3EBD10F24BFA3EBD10340EADC001B0118BF5FEA1C1CE0D1FD2A3FF650AF8B42C8
:401A800040EBC25008BF20F0010070470CF0004C4CEA50207F32C2BFD2F1FF0340EAC250704740F400004FF00003013A37E792F0000F00F0004C02BF400010F4000F013A97
:401AC000F9D040EA0C0093F0000F01F0004C02BF490011F4000F013BF9D041EA0C0195E70CEAD15392EA0C0F08D142027FF47DAF93EA0C0F7FF470AF084676E793EA0C0F67
:401B000004D14B023FF44CAF08466EE730F0004C18BF31F0004CCAD130F000427FF45CAF31F000437FF43CAF5FE700BF42000ED2B2F1FE4F0BD34FF09E03B3EB126209D401
:401B40004FEA002343F0004323FA02F070474FF00000704712F1610F01D1420202D14FF0FF3070474FF00000704700BF014B1868704700BF3481FF1F0E4B70B51E460E4C50
:401B80000025E41AA410A54204D056F8253098470135F8E701F0B4FE084B094C1E46E41AA4100025A54204D056F8253098470135F8E770BD0C3900000C3900000C39000028
:401BC0001439000010B5431E0A44914204D011F8014B03F8014FF8E710BD03460244934202D003F8011BFAE770472DE9F04788B0149F002B1E461299B8BF03F1004327F015
:401C00002007B6BF1E4600232D23462F1446109DDDF84CA00B7003D0452F03D1013501E0032300E0022307AA049206AA03928DE828042246334600F0B7FB472F804602D15D
:401C4000119BDB0728D5462F08EB050911D198F80030302B0AD1002200232046314601F0F1FC18B9C5F10105CAF80050DAF800309944002200232046314601F0E3FC08B95A
:401C8000302202E0CDF81C9006E0079B994503D9591C07911A70F8E74046079B159AC8EB0303136008B0BDE8F087034673B50029B8BF494203F8022BB4BF2D222B220929EB
:401CC00042701ADD0DF1070216460A2591FBF5F405FB1411092C01F1300102F8011D2146F4DC3031541E02F8011CB4421A460AD214F8012B03F8012BF7E71A4630242144F6
:401D000002F8024B5970101A02B070BD2DE9F04F91B00C46DDF8688016461F46054601F0DBF803681846099300F0AAFA00230E93D8F800300A90073323F0070303F1080269
:401D400094F81890D4F800B0C8F80020D3E90023C4E91223D4F84CA0D4F848802AF000430B934FF0FF32A74B40460B9901F09CFCA0B94FF0FF32A34B40460B9901F076FC72
:401D800060B9002200234046514601F065FC10B12D2384F843309C4B9C4A0AE0424653464046514601F080FC002800F09281984B984AB9F1470F8CBF90469846032323615B
:401DC0002BF0040323604FF0000A3DE0B9F1670F00F08A81B9F1470F00F0868123600193636800210DF13302059002920093424653460691CDF81090CDF80CE02846FFF7A2
:401E0000F4FE09F0DF03472B804600F08481B9F1650F0D9900F28D8101394A4604F150000D91FFF742FF0E9A82468318012A236100F37C812268D10700F178819DF8333012
:401E400013B12D2384F84330009733460FAA2146284600F09FF9013002D14FF0FF3096E123685A0501D4236965E0B9F1650F40F2D580D4E912010022002301F0E3FB78B30C
:401E80000123654A31462846B8470130E5D00E9B0D9A9A420BDB2368D80708D423689B0740F111814FF0000804F1190906E10A9B099A31462846B8470130CED04FF00008B6
:401EC00004F11A090E9B013B9845E7DA01234A4631462846B8470130BFD008F10108F1E70D9B002B29DC01234B4A31462846B8470130B2D00D9B23B90E9B13B92368D90789
:401F0000CCD50A9B099A31462846B8470130A4D04FF0000904F11A0A0D9B5B42994509DA0123524631462846B847013095D009F10109F1E70E9B4246A7E00E9AA36D9A426A
:401F4000A8BF1A46002A914606DC4FF0000A29EAE97904F11A0B11E01346314642462846B8470130F1D178E701235A4631462846B84701303FF471AF0AF1010AA36DC9EBE1
:401F800003029245F0DB08EB03090D9A0E9B9A420FDB2368DA070CD40E9B0D9A9844C9EB08089B1A9845A8BF9846B8F1000F08DC0FE00A9B099A31462846B8470130EBD1AE
:401FC0004BE743464A4631462846B84701303FF444AF4FF0000928EAE87804F11A0A09E00123524631462846B84701303FF435AF09F101090D9A0E9B9B1AC8EB0303994517
:40200000EEDB4BE7FFFFEF7FD3370000D7370000DB370000DF370000E33700000E9A012A01DCDB0738D50123424631462846B84701303FF412AF0A9B099A31462846B8475F
:4020400001303FF40AAFD4E912010022002301F0F9FA20B14FF0000804F11A090EE00E9B08F10102013B19E001234A4631462846B84701303FF4F1AE08F101080E9B013BD0
:402080009845F1DB534604F1500231462846B84701307FF403AFE0E64246012331462846B8470130EED1D8E601234A4631462846B84701303FF4D1AE08F10108E3680F9AE8
:4020C0009B1A9845F0DBE0680F9B9842B8BF18465DE062680EA8531C0DF1340E4BF480637FF474AE062201E012B90122626075E6002106910DF133018DE80C002360059028
:402100004246CDF81090CDF80CE0029153462846FFF76BFD80460D9BD81C02DB626893421DDDA9F102095FFA89F970E60133236184E6B9F1660F14D10029636807DD2161DB
:4021400013B92268D2071DD501330B4419E013B92268D00701D5023313E0012311E04FF067090D9B0E9A934205DB22682361D10708D5013305E0002BD4BFC3F10203012357
:40218000134423610D9B4FF0000AA36556E611B0BDE8F08F2DE9F04791461F460A698B6806469342B8BF1346C9F8003091F843200C46DDF8208012B10133C9F80030236833
:4021C000990642BFD9F800300233C9F80030256815F0060510D104F1190A07E00123524639463046C04701301AD00135E368D9F800209B1A9D42F1DB94F84330226800333A
:4022000018BF012392060FD5E118302081F843005A1C94F845102244023382F8431003E04FF0FF30BDE8F08704F1430239463046C0470130F4D02268D9F80050E36802F0E3
:402240000602042A08BF5D1B2269A3680CBF25EAE57500259342C4BF9B1AED184FF000091A344D4509D00123224639463046C0470130D5D009F10109F3E70020BDE8F0876F
:40228000034613F8012B002AFBD1181A013870472DE9F74F03690C6980469C427FDC013C01F114074FEA840E00F1140606EB0E0357F82450019356F824300135B3FBF5F561
:4022C00007EB0E09C5B34FF0000A3846B446D34650F8043B9AB205FB02A21B0C4FEA124A05FB03A392B2C2EB0B0BBCF800204FEA134A5A441FFA83FBDCF800308145CBEB84
:40230000134303EB224392B242EA03424FEA234B4CF8042BDCD256F80E306BB9019B043B9E421A4602D3C8F8104005E01268043B002AF8D1013CF3E7404600F0E6FF00289C
:402340002BDB304601354FF0000E57F8042B036891B2C1EB0E0E120C99B27144C2EB134303EB214389B24FEA234EB94541EA034340F8043BE9D256F8242006EB840362B94C
:40238000043B9E421A4602D3C8F8104005E01268043B002AF8D1013CF3E7284600E0002003B0BDE8F08F00002DE9F04F456A95B08246219CCDE9022345B9102000F090FD78
:4023C000CAF82400456085600560C560DAF82430196859B15A68012393404A608B60504600F0BBFDDAF8243000221A60039BA04A002BBDBF01232360039B0023BCBF23F0BF
:4024000000430393DDF80C80A8BF236028F000431B0D1B0593421DD142F20F73209A1360029B43B9934A944BC8F31300002814BF1846104600E09048229B002B00F0468502
:40244000C37813B100F1080300E0C31C229A136000F03CBDDDE90245002200232046294601F0F0F8074658B1209A01231360229B002B00F01E8581481860013800F026BD1B
:4024800012AB019313AB009322462B46504600F0B7FFC8F30A56049056B1C5F3130343F07F51204641F44011A6F2FF3611971DE0139B129E1E4406F23243202B0ADD029A85
:4024C00006F21240C3F1400322FA00F008FA03F3184304E0C3F12000029B03FA00F0FEF7FDFE0123A1F1F871013E11930022644BFEF7B6FD58A3D3E90023FEF765FF58A361
:40250000D3E90023FEF7AEFD044630460D46FEF7F5FE55A3D3E90023FEF756FF02460B4620462946FEF79EFD04460D4601F0D2F80022834600232046294601F08DF858B148
:402540005846FEF7DBFE02460B462046294601F079F808B90BF1FF3BBBF1160F0DD8DDE90223484901EBCB01D1E9000101F092F830B10BF1FF3B002300E00123109300E047
:402580001090129B9E1B731E079343BFC3F10008002307934FF00008BBF1000F06DB079BCDF82CB05B440793002705E00023CBEB0808CBF100070B931E9B092B28D8052B9D
:4025C000C4BF043B1E931E9BC8BF0025A3F10203D8BF0125032B20D8DFE803F0060E0204012302E0012308E000230A931F9B002B1DDD9946059321E000230A931F9B0BEB1A
:40260000030909F10103012B0593B8BF012315E0012500231E930A9501E001230A934FF0FF390022CDF8149012231F9206E04FF001094B46CDF81490CDF87C90DAF82440E9
:4026400000226260042101F114029A421CD86268490001326260F6E761436F63A787D23FB3C8608B288AC63FFB799F501344D33F0000F07FE5370000EE370000E43700002B
:402680000000F83F003800006168504600F030FCDAF8243020601B680693059B0E2B00F25B81002D00F05881DDE90234BBF1000FCDE90E3430DD9F4A0BF00F034FEA2B15A6
:4026C00002EBC303E80618CBCDE908340CD5DDE90E01994B05F00F05D3E90823FEF79EFF0324CDE9020100E00224934E6DB1E90708D5DDE90801D6E90023FEF765FECDE9D7
:40270000080101346D100836F0E7DDE90823DDE90201FEF783FF20E0CBF1000505B3DDE90E01844B05F00F0203EBC203D3E90023FEF74AFECDE902017F4E2D110023022499
:4027400055B1EA0705D5D6E90023FEF73DFE013401236D100836F3E71BB1CDE9020100E00224109BE3B1DDE902560022734B2846314600F071FF98B1059B8BB1B9F1000F9D
:4027800040F3E6800BF1FF330893314600226C4B2846FEF719FE0134CDE902014E4602E0059ECDF820B02046FEF7A8FDDDE90223FEF70AFE634B0022FEF754FCA1F15073FF
:4027C00004460C931D46D6B9DDE9020100225E4BFEF746FC22460C9BCDE9020100F05AFF002840F03F820C99224601F10043DDE9020100F031FF002840F02B82A8E00A9AAD
:402800004C4B711E002A49D003EBC103D3E9002300204E49FEF702FF22462B46FEF720FCCDE90C01069CDDE9020100F053FF0546FEF764FD02460B46DDE90201FEF710FC93
:40284000DDE90C23303504F8015BCDE9020100F003FF002840F01D83DDE9022300203749FEF7FEFBDDE90C2300F0F6FE002840F0D180069BE31AB3426ADADDE90C0100223C
:402880002F4BFEF7A1FD0022CDE90C01DDE902012B4BFEF799FDCDE90201C4E703EBC1012246D1E900012B46FEF78EFD069BCDE90C011D469C19DDE9020100F00BFF0646A9
:4028C000FEF71CFD02460B46DDE90201FEF7C8FB303605F8016BAC42CDE902014FF0000222D11A4BDDE90C01FEF7BCFB02460B46DDE9020100F0CEFE002840F08B80DDE9DB
:402900000C2300201149FEF7ABFB02460B46DDE9020100F0A1FED8B114F8013C621E302B40F0B7821446F7E7054BFEF74DFDCDE90201C0E700380000D83800000000F03FAE
:402940000000244000001C40000014400000E03FDDE90E34CDE90234139B002B7CDBBBF10E0F79DCAB4B03EBCB03D3E900671F9B002B14DA059B002B11DC40F06C81002243
:40298000A54B30463946FEF71FFDDDE9022300F077FE059D2E46002840F05F8165E1069CDDE9028932463B4640464946FEF736FE00F090FE0546FEF7A1FC32463B46FEF7CA
:4029C00003FD0B46024649464046FEF749FB05F1300E069B04F801EBC3EB040E059B73452DD102460B46FEF73DFB8046894602460B463046394600F02FFE78B942464B46CD
:402A00003046394600F01EFE002800F04482EB0704D440E2DDF820B000E01C4614F8012C631E392A07D1069A9A42F6D1069930220BF1010B0A701A7801321A702BE20022BB
:402A4000764BFEF7C1FC002200238046894600F0F9FD0028A6D01EE20A9A002A2BD01E9A012A0ADC119A12B103F2334302E0129BC3F136033D46444613E0059B5D1EAF4292
:402A8000BFBF0B9BEA1B9B180B93059BB6BF2F467D1B0025002BA7BF4446059BC3EB08040023079A01211A4450469844079200F0F3FA064602E03D4644460A9E5CB1079B22
:402AC000002B08DDA342A8BF2346079AC3EB0808E41AD31A0793002F1DDD0A9BABB18DB131462A46504600F071FB049A01460646504600F0DAFA04990890504600F02DFA7F
:402B0000089B04937A1B06D000E03A460499504600F05CFB04900121504600F0BDFA0B9B05465BB31A460146504600F04FFB1E9B0546012B18DC029B83B9039BC3F3130346
:402B400073B9039B23F000473F0D3F054FB1079B08F1010801330793012702E0002700E0029F0B9B73B100E000272B6905EB8303186900F044FAC0F1200004E01E9B012B59
:402B8000D9DD0B9F0120079B184410F01F0008D0C0F12003042B02DDC0F11C0002E006D018461C30079B8044034404440793B8F1000F05DD42460499504600F055FB0490D6
:402BC000079B002B05DD29461A46504600F04CFB0546109B23B32946049800F096FB00281EDA00230A220499504600F0CDF90A9B0BF1FF3B0490002B00F05F8131460023D6
:402C00000A22504600F0C0F9B9F1000F06463FDC3BE000BF003800000000144000002440059B002B2BDC1E9B022B28DDDDF81490B9F1000F11D129464B460522504600F0C1
:402C4000A3F901460546049800F05FFB00280CDC03E0354600E000252E461F9B069C6FEA030B09E03546DDF820B0069B069A5C1C312313700BF1010B05960026F7E00A9BB8
:402C8000DDF8149023B9069CB2E01E9B022BCFDC002C05DD31462246504600F0E5FA06469FB17168504600F023F90446326906F10C01023292000C30FEF784FF01222146A4
:402CC000504600F0D1FA059000E00596029B069F03F00103079329460498FFF7D9FA3146044600F13008049800F00FFB059A02902946504600F025FBC36802463BB9014658
:402D00000A90049800F001FB0A9A034600E00123114650460A9300F020F90A9B53B91E9A42B9079A32B9B8F1390F2AD0029B002B1CDC1DE0029A002A04DB1BD11E9ACAB989
:402D4000079ABAB9002B13DD01220499504600F08BFA2946049000F0D8FA002803DC07D118F0010F04D0B8F1390F0AD004F131087C1C0CE0002B07F101040BDDB8F1390F4B
:402D800003D139233B70013756E008F1010887F800806CE0069B2746E31A4B4504F8018C3BD000230A220499504600F0EDF8059B04909E424FF00A024FF000033146504649
:402DC00004D100F0E1F80646059084E700F0DCF8002306460A220599504600F0D5F8059079E700230A220499504600F0CDF8049029460498FFF74CFA069B00F1300804F8CC
:402E0000018BE31A4B45ECDB069B0596B9F1010FACBF4B4401331F46002601220499504600F022FA2946049000F06FFA002803DC15D118F0010F12D03C4614F8013C621E13
:402E4000392B09D1069B934204D10BF1010B3123069A02E01446F0E70133137007E03C4614F8013C621E302B01D11446F8E72946504600F072F8059B6BB12EB19E4203D0BE
:402E80003146504600F069F80599504600F065F801E0DDF820B00499504600F05EF80023209A23700BF101031360229B1BB11C6001E008480AE0069808E0B9F1000F3FF7BC
:402EC000E2AE1E9B022B7FF7DEAEB1E615B0BDE8F08F00BFE3370000004870473881FF1F024B0146186800F0E7BA00BF3481FF1F70B5456A04460E463DB91020FFF7F0FF77
:402F00006062456085600560C560656AEB6843B1636ADB6853F8260078B1026843F8262017E021220421204600F0B8FA636AE860DB68002BECD1002070BD012101FA06F504
:402F40006A1D9200204600F0A9FA0028F3D04660856000230361C36070BD70B5446A06460D463CB91020FFF7BBFF7062446084600460C4603DB1736A6A68DB6853F822106C
:402F8000296043F8225070BD2DE9F04106460C460D691F4601F1140E0023DEF80000013381B202FB0171000C0F0C02FB007089B201EB00419D424FEA10474EF8041BECDC73
:402FC000D7B1A3689D4212DB616830460131FFF78FFF8046226904F10C01023292000C30FEF7F0FD21463046FFF7B7FF444604EB850301355F6125612046BDE8F081030CB5
:403000001B0413B90004102300E0002310F07F4F04BF0002083310F0704F04BF0001043310F0404F04BF80000233002803DB420003D5581C7047184670472020704703681A
:4030400013F007020BD0D90722D49A074BBF5B089B08036003604CBF01200220704799B209B91B0C102213F0FF0F04BF1B0A0832190704BF1B090432990704BF9B08023207
:40308000D90702D45B0805D00132036010467047002070472020704710B50C460121FFF727FF01224461026110BD2DE9F74F14460A69236988469A42BEBF0B46A0461C46EF
:4030C000D8F81070D4F81090D8F80830D8F8041007EB09069E42C8BF0131FFF709FF00F114052B4605EB860C0022634502D243F8042BFAE704F1140208F1140102EB890318
:4031000001EB87070093009B0192934257D9B2F800B0BBF1000F23D08946AE464FF0000859F8044BBEF800A0A3B20BFB03A34FEA144ADEF8004043444FEA14480BFB0A84E9
:40314000F24604EB13449BB243EA04434F454FEA14484AF8043B01D9D646E1E7CEF80480019B0432B3F802A0BAF1000F21D02C4689462B684FF00008B9F800E0B4F802B08A
:403180009BB20AFB0EBEA346F04443EA08434BF8043B59F8043BB4F804E01B0C0AFB03E34F4503EB18434FEA134801D95C46E3E763600435A7E75CF8043D13B9013E002E99
:4031C000F9DC066103B0BDE8F08F00002DE9F843154612F0030206460F4607D0214C013A002354F82220FFF7CFFE0746AD1036D0746A3CB91020FFF773FE706244608460A1
:403200000460C460D6F82480D8F808404CB940F271213046FFF740FF04460023C8F8080003604FF00008EB070AD5394622463046FFF73BFF814639463046FFF78EFE4F46F8
:403240006D100CD0206808B10446ECE7224621463046FFF72AFF2060C0F80080F4E73846BDE8F883C83800002DE9F0470C460746914626694FEA621A56444968A368751C14
:40328000AB4202DA01315B00FAE73846FFF730FE002380461A4600F11401534503DA41F823200133F9E72AEAEA73206901EB830319F01F0904F1140101EB800E14D0C9F122
:4032C000200C002208689A4600FA09F0024343F8042B51F8042B8E4522FA0CF2F2D8CAF8042042B1B51C06E0043B51F8042B8E4543F8042FF9D8013D3846C8F810502146C3
:40330000FFF72BFE4046BDE8F08703690A6910B59B1A11D192001430143183180A4453F8044D52F8041D8C4202D007D3012010BD9842F4D3002010BD184610BD4FF0FF30F7
:4033400010BD2DE9F8430C460746114620461546FFF7DBFF061E08D131463846FFF7C8FD012303614661BDE8F883BCBF23462C4638466168BABF1D4601260026FFF7B8FD3B
:403380002B69C660266905F1140904F1140101EB860709EB830800F114054FF0000C51F8042B59F8044B93B29C44A3B2240CC3EB0C03C4EB124202EB23429BB24FEA224C92
:4033C000C84543EA02428E4645F8042BE7D8BE450ED25EF8041B8AB26244131403EB114392B242EA03424FEA234C45F8042BEEE755F8043D0BB9013EFAE70661BDE8F88316
:403400002DE9F3411C4601219046089E099DFFF76FFDC4F31302C4F30A5407460CB142F480120192B8F1000F19D002A840F8088DFFF705FE009B48B1019AC0F1200102FAE6
:4034400001F10B43C2407B61019200E07B61019B002B14BF02210121BB61396107E001A8FFF7EDFD019B01217B613961203034B1A4F2334404443460C0F1350009E0A0F227
:40348000324007EB810330601869FFF7B8FDC0EB41102860384602B0BDE8F08138B502FB01F4214600F008F8054618B122460021FEF793FB284638BD70B5CD1C25F00305BA
:4034C00008350C2D38BF0C25002D064601DBA94202D90C23336046E000F05CF8234B1C681A462146A1B10B685B1B0ED40B2B03D90B60CC18CD501EE08C420BBF63684B687F
:403500001360636018BF0C4615E00C464968E9E7174C23681BB9304600F02CF820602946304600F027F8431C18D0C41C24F00304A0420DD12560304600F02DF804F10B0092
:40354000231D20F00700C31A0ED05A42E25070BD211A304600F00EF80130EBD10C233360304600F018F8002070BD00BF9881FF1F9481FF1F38B5064C00230546084623607E
:40358000FDF7D4F8431C02D1236803B12B6038BDB481FF1F704770474FF0FF3C06E000BF4FF0010C02E000BF4FF0010C4DF804CD4FEA410C7FEA6C5C4FEA430C18BF7FEAAC
:4035C0006C5C1BD001B050EA410C0CBF52EA430C91EA030F02BF90EA020F0020704710F1000F91EA030F58BF994208BF90422CBFD8176FEAE37040F0010070474FEA410CBE
:403600007FEA6C5C02D150EA013C07D14FEA430C7FEA6C5CD6D152EA033CD3D05DF8040B704700BF8446104662468C461946634600E000BF01B5FFF7B7FF002848BF10F10C
:40364000000F01BD4DF808EDFFF7F4FF0CBF012000205DF808FB00BF4DF808EDFFF7EAFF34BF012000205DF808FB00BF4DF808EDFFF7E0FF94BF012000205DF808FB00BF19
:403680004DF808EDFFF7CEFF94BF012000205DF808FB00BF4DF808EDFFF7C4FF34BF012000205DF808FB00BF4FEA410C7FEA6C5C02D150EA013C0AD14FEA430C7FEA6C5C8F
:4036C00002D152EA033C02D14FF0000070474FF0010070474FEA410212F5001215D211D56FF47873B3EB625212D94FEAC12343F0004343EA505311F0004F23FA02F018BF36
:40370000404270474FF00000704750EA013005D111F0004008BF6FF0004070474FF00000704700BF00000000536869740000000053776974636820686173206265656E20C6
:40374000747269676765726564200D0A00000000004F00400C0020510040100040510040300000000140001000140140000800400140000A004C014000020050014020007F
:4037800060520040E006004806000000D9A59BFF3917D2014DC1F2FD94F8BC080CE760EF57A6C20CA9F684FEA6B9C40559F21202D4A3F4003B4ECBF3F7670A120111213116
:4037C00041615363730000000809010105070704044300494E4600696E66004E414E006E616E003000496E66696E697479004E614E00504F534958002E0000000000000021
:40380000000000000000F03F000000000000244000000000000059400000000000408F40000000000088C34000000000006AF8400000000080842E4100000000D012634127
:403840000000000084D797410000000065CDCD41000000205FA00242000000E876483742000000A2941A6D42000040E59C30A2420000901EC4BCD64200003426F56B0C4330
:403880000080E03779C3414300A0D8855734764300C84E676DC1AB43003D9160E458E143408CB5781DAF154450EFE2D6E41A4B4492D54D06CFF08044F64AE1C7022DB5445A
:4038C000B49DD9794378EA4405000000190000007D000000000000000080E03779C34143176E05B5B5B89346F5F93FE9034F384D321D30F94877825A3CBF737FDD4F157522
:40390000F8B500BFF8BC08BC9E4670474D000000A9070000F8B500BFF8BC08BC9E4670472900000038390000C880FF1FA8000000480000000000000000000000CC100000C0
:40394000B881FF1F0000000000000000000000000000000000000000000000000000000000000000D1370000000000000000000000000000000000000000000000000000E8
:40398000000000000000000000000000000000000000000000000000000000000000000000000000D480FF1FF8370000F9370000F9370000F9370000F9370000F937000076
:4039C000F9370000F9370000F9370000F9370000FFFFFFFFFFFFFFFFFFFFFFFFFFFF0000000000000000000000000000000000000000000000000000000000000000000015
:403A00000000000000000000000000000000000000000000000000000000000000000000000000000000000000000000000000000000000000000000000000000000000086
:403A40000000000000000000000000000000000000000000000000000000000000000000000000000000000000000000000000000000000000000000000000000000000046
:403A80000000000000000000000000000000000000000000000000000000000000000000000000000000000000000000000000000000000000000000000000000000000006
:403AC00000000000000000000000000000000000000000000000000000000000000000000000000000000000000000000000000000000000000000000000000000000000C6
:020000040003F7
:0200000480007A
:4000000001450040024F004002520040016400400365004068040140300501405706014040070140020901405314014059150140481601405117014008190140451A014092
:400040004C1B0140024001400141014001420140044301400948014005490140084D01400550014001510140000301300A361802790287388572860F8A0F0203040906D011
:4000800007130C0C0E7110DC112C122213031414170C181019311AAC1B062131230E2410264027082A2030E0310F3530361F39203A023B023F104002450449FF4A074BFF49
:4000C0004C404D204EF04F055008580459045A045C115D015F01604061A86240632080138204830886088708881389108A0C8B208D038F34911493239420960598039A04A1
:400100009B01A00AA214A308A510A726A908AD08B230B307B40FB530B708B808BA20BB20BF40C026C104C50CC7EBC831C9FFCAFFCBFFCEF0CF44D00CD804D904DA04DC0116
:40014000DD01DF01E6C0EA40EB0201080382051D092A0B800C080F081038150219011B821D3420042103251026402710281029012D202E802F6231163602371038083D2297
:400180003F48400445204680482049304C044F08500C5508570179107B04C07DC26EC416CAF3CCA7CEF2D0A4D22001080503070C082C0A130E021007110D12181302150FEE
:4001C0001649190C1A34230225042821290D2A0A2B02343F35013640370E3B883F10580459045C105F018418862188D48A208B018C0590079208960597019A059C05A00555
:40020000A405A880AA20AC28AE42B4FFB701BA30BF40C026C105C240C403C5CDC6F0C7EBC83BC9FFCAFFCBFFCC22CEF0CF0CD004D418D604D804D904DA04DB04DD10DF01DA
:40024000E2C0E440E501E610E711E8C0E901EB11EC40ED01EE40EF01012003220550088009140B400C080E040F4010281242152019201D401E041F102280260427092E0844
:400280002F4433043604372138203C083E02404041144320480149144B4150085210530159016120628185048F10911097409B10A110A240A301A602A720A804A901AB807E
:4002C000C0C7C27FC44FCAE0CCE2CEC4D007D20CD601D80DE640EC049902A902040C050808080A020B040D040E0C0F0A100C110D1201140C170119051A0C1B081D0D210D9C
:40030000250E280429082A022B052D022E0C2F04300C33013603370E3E403F044025410642034401450E46C0480949FF4AFF4BFF4C624DA04EF04F41500C580459045A04EF
:400340005C015D015F016640670269106A306B106D106E106F128104850289088D08950799069D08A301A501A706A907AD06AF01B108B507D602D712D904DB04DC10DD1062
:40038000DF0100200140032109010B6810041202180119012002210822402603270428A02AA02D402F6430A1310436443720381039803A043C803D103E0A4001432449080D
:4003C0004A054BA050105F086D106E84760A77208105822084718605882489108C908F02918093089420968197C0988199049A849B099C049D099E0A9F24A204A320A421B7
:40040000A50CA702A940AC88AD10AEA0AF40B282B304B402B504C007C20EC403CAFFCC7FCEFED00ED20CD640E002E20CE408E601EAC2EE0600E701010218041808080C1053
:4004400010C0141C16E218FF1C8020DC2102222126C3270228442E04321F34D835013620370238803A283F505401580459045B045C015D105F0180A08240870288028902DD
:400480008A0D8B048C1D90619282940D9610982299069AC89C1D9D029F04A41DA701A862AA84AC1DAF01B010B106B20FB410B501B6E0BA88BB03BE10BF10D440D804D9049F
:4004C000DB04DF01038A0502060A0720088009040A800B040E290F401029140415401620170118481B881C081D401E201F24212022022404268029482F9031103240392056
:400500003A043D013F025C045D115E80600261086210640165106640670479807A0283018401850287208C049110932294609520978899049A149B099C809D119E4A9F246C
:40054000A244A301A425A524A602A702B605B701C0FBC2FFC4F7CACACC0CCE86D6F0D80EE202E404EE40810884408E019902A202B602E010EC100001014A05420601070896
:40058000080109200A020BD00D080E070F421001115313AC1401153117081806194A1A011C011D4A200121732206238427422D082E013003330F340435F039083A023B20DE
:4005C0003E1456025724580459045B045F01800189018D3E910199249B0A9D089F30A112A34CA501A93EB138B340B506B601B701BE40BF40D409D804D904DB04DC10DF01AD
:4006000001210311050209800A681041120219101A801B041F8020142118220425202694274028412A082F643188321033013610374139693C103D805C405D085E12600408
:40064000614062806540684069496A646B18718080408110825283408440856087208A048B448D208E488F88990A9B01A203A440A588A604A704AA04AD88B301B704C01F0C
:40068000C20FC409CAEBCCBFCE3FD6F0D814E080E210E6E0EA40EC203120CC10A520A52085018E20A520E01001015940642095019A20B520C010D480D88056209A20B140CE
:4006C000B420D4401080750288808D02C408DE04E002E60100030A0310031A031C03000380800000400000000B0B00000000040080004080800080000000000004000106F6
:4007000006000200000000008000000B0B00000080000000000202000200000000000000000000000000000000000000000000000000000000000000000000000000000095
:400740000000000000000000000000000000000000000000000000000000000000000000000000000000000000000000000000000000000000000000000000000000000079
:400780000000000000000000000000000000000000000000000000000000000000000000000000000000000000000000000000000000000000000000000000000000000039
:4007C00000000000000000000000000000000000000000000000000000000000000000000000000000000000000000000000000000000000000000000000000000000000F9
:4008000000000000000000000000000000000000000000000000000000000000000000000000000000000000000000000000000000000000000000000000000000000000B8
:0200000490006A
:0400000000004005B7
:0200000490105A
:04000000BC90ACAF55
:0200000490303A
:02000000B82D19
:0200000490402A
:4000000000000000000000000000000000000000000000000000000000000000000000000000000000000000000000000000000000000000000000000000000000000000C0
:400040000000000000000000000000000000000000000000000000000000000000000000000000000000000000000000000000000000000000000000000000000000000080
:400080000000000000000000000000000000000000000000000000000000000000000000000000000000000000000000000000000000000000000000000000000000000040
:4000C0000000000000000000000000000000000000000000000000000000000000000000000000000000000000000000000000000000000000000000000000000000000000
:0200000490501A
:0C00000000012E16106900012E2EC8967B
:00000001FF